:100000000080002059100000431000004310000041
:1000100000000000000000000000000000000000E0
:10002000000000000000000000000000431000007D
:10003000000000000000000043100000AD100000B0
:100040004310000043100000431000004310000064
:100050004310000043100000431000004510000052
:10006000431000006107000043100000431000002F
:100070003907000043100000710700004310000022
:100080004310000043100000431000004310000024
:100090000000000043100000431000004310000067
:1000A0004310000043100000431000004310000004
:1000B0000000000010B5064C2378002B07D1054B3B
:1000C000002B02D0044800E000BF0123237010BDC4
:1000D0004000002000000000FC1E0000044B10B592
:1000E000002B03D00349044800E000BF10BDC04608
:1000F0000000000044000020FC1E000010B500219C
:10010000102001F0ABF900210F2001F0A7F910BD7C
:1001100010B50021122001F0A1F90021112001F0F9
:100120009DF910BD10B51A4C00222000322100F0BC
:1001300019FA2000174900F031FA2000164900F0A2
:1001400031FA0121102001F06FFA01210F2001F096
:100150006BFA0121122001F067FA0121112001F050
:1001600063FA0121042001F05FFA0021062001F06A
:100170005BFA0021052001F057FA0021042001F06C
:1001800083FA0023054A1380054A138010BDC04638
:1001900068000020590300005104000062000020A4
:1001A00064000020C31710B5C4185C40002808DDA7
:1001B0002100102001F052F900210F2001F04EF92A
:1001C00010BD002805D00021102001F047F92100C2
:1001D000F3E7FFF793FFF3E7C31710B5C4185C40CC
:1001E000002808DD2100122001F038F9002111203B
:1001F00001F034F910BD002805D00021122001F0D3
:100200002DF92100F3E7FFF783FFF3E770B572B62E
:10021000042001F065FA62B6C0B21F4B002802D07C
:10022000B122012800D0B0221A7072B6062001F067
:1002300057FA0400052001F053FA030062B660008B
:10024000FF246400DBB220401843A222134B022893
:1002500005D0032802D0A122012800D0A0221A70C4
:1002600072B60F4B1D880F4B2DB21C8824B262B69C
:100270000D4E0022B35EAB4203D02800FFF792FF81
:1002800035800A4D0022AB5EA34203D02000FFF769
:10029000A3FF2C8070BDC04601000020000000209C
:1002A00062000020640000205C0000205E0000204E
:1002B00010B5062001F014FA01284CD1043001F0E9
:1002C0000FFA0100012846D1042001F0DDF9502089
:1002D0004042FFF767FF5020FFF77EFF502000F0FD
:1002E0001DFF5020FFF75EFF50204042FFF774FFD4
:1002F000502000F013FF50204042FFF753FF5020E2
:10030000FFF76AFF502000F009FF5020FFF74AFF77
:1003100050204042FFF760FF502000F0FFFE5020C9
:100320004042FFF73FFF5020FFF756FF502000F0FC
:10033000F5FE5020FFF736FF50204042FFF74CFFFC
:10034000502000F0EBFEFFF7D9FEFFF7E1FE0021A1
:10035000042001F099F910BD70B5051E1DDD384C63
:10036000200000F056F9374BC2B21A70FF2203008A
:100370001340082B0BDC013A10420ED0981E0628C1
:100380000BD801F06FFA0B101A2E0A0A4100812BCC
:1003900051D0822B0BD0802B4AD070BD012104207C
:1003A00001F072F9F9E70021042001F06DF9002352
:1003B000254A1380254A1380EFE7022DEDDD20004A
:1003C00000F098F80128E8DD200000F022F905008F
:1003D000200000F01EF92D0205431B4B2DB21D809D
:1003E000DBE7022DD9DD200000F084F80128D4DD00
:1003F000200000F00EF90500200000F00AF92D029F
:100400000543124B2DB2EAE7042DC6DD200000F0B3
:1004100071F80328C1DD200000F0FBF80500200082
:1004200000F0F7F82D02084B05432DB21D80DFE7E1
:10043000FFF73EFFB1E7044B1A80044B1A80ACE78C
:10044000680000206000002062000020640000209E
:1004500070B5114B114C18780138082819D801F0E3
:1004600001FA051818181808141816000C4B1978FA
:1004700006E00C4D29882000090A00F0A4F829881C
:10048000C9B2200000F09FF870BD074DF2E7074B9E
:10049000EDE70021F5E7C04660000020680000207D
:1004A0000000002062000020640000200100002005
:1004B00000207047F8B505000E0017000024BC426C
:1004C00008D02B682800315D1B689847002801D0B0
:1004D0000134F4E72000F8BD70470300FC33196ACB
:1004E000DA69914203D01B6AC018007E7047012070
:1004F0004042FBE70300FC33D8691B6AC01A01D5F0
:100500000130FF3070470000F7B50193FA238027D0
:10051000002504009B008360114B7F0008330E0010
:1005200045602900009203603A00183001F05DFA3E
:1005300023002000FC332130DD613A001D622900D8
:10054000FF3001F052FA87239B00E3185D609D6045
:10055000009B20002375019B2661A5756375FEBD78
:10056000141A000070B504001826006900F010FB92
:10057000206900F0E5F933000821207D064D434352
:10058000EB18595601F0C4F80821607D4643AD19B7
:10059000695601F0BDF870BD381A00008C239B002D
:1005A000C15070478B239B00C15070470200FC3242
:1005B000536810B501339468DBB29C4202D0546892
:1005C0000155536010BD10B50300827D00208242AA
:1005D0000ED0872292009C186268A4680132D2B2C1
:1005E000A24205D02133FF331800FFF7DFFF0120BF
:1005F00010BD0300FC3399685A68914206D09A688E
:10060000805C9A680132D2B29A6070470120404201
:10061000FBE710B51830FFF7ECFF10BD70B5040014
:10062000006900F0DAF9002814D0206900F0E3F93D
:10063000002810D0206900F0A1F90321206900F002
:10064000A7F98C239B00E558002D39D10023FC34F9
:10065000E361236270BD206900F0D7F9002809D05A
:10066000206900F0CDF9002804D0206900F0D2F90B
:100670000028DFD0206900F0C8F9002826D12069C1
:1006800000F0B4F90028E5D0206900F0C3F9002893
:1006900037D087239B00E218536892689B1A01D5D4
:1006A0000133FF33FF21002B05D020002130FF3024
:1006B000FFF79FFFC1B2206900F080F9A075C9E77C
:1006C000236820001B699847A847BFE7206900F00E
:1006D00055F92069032100F05BF9206900F09AF9CF
:1006E0000028B7D0872300229B00E3185A609A6045
:1006F0000123A3758B239B00E3589342AAD098470C
:10070000A8E72200FC32D369126A0133DBB2206908
:10071000934206D100F029F90321206900F038F94D
:1007200098E700F07CF9010020001830FFF73EFF49
:10073000206900F023F9EFE710B50248FFF76EFFDC
:1007400010BDC0466800002010B5152314220249D0
:100750000248FFF7D9FE10BDA00800206800002065
:1007600010B5024800F074FB10BDC0469C0200208A
:1007700010B5024800F06CFB10BDC0469805002083
:10078000F7B501240326154F1549380000F042F84B
:100790001449154800F03EF81449154800F03AF89D
:1007A0001449154800F036F81449154800F032F89D
:1007B000144D1549280000F02DF83900230000964B
:1007C00000220194114800F0D9FA290000961E2356
:1007D0001F2201940E4800F0D1FAF7BD94080020C2
:1007E00000080042000C004298080020001000425F
:1007F0009C08002000140042A008002000180042BD
:10080000A4080020A8080020001C00429C02002030
:1008100098050020016070479446F0B505AC257836
:100820009C1E621E94416246066892073768240641
:100830003A4322430724326000682140AD0100247E
:1008400042682943022B00D05C030A4322434260E2
:10085000F0BD30B5C0250368AD031C6812052A4001
:100860002243C0240904A40221400A431A600368F9
:100870005A6814435C6030BD0123026811680B4361
:10088000136003681A68D207FCD4DA69D207F9D476
:1008900070470223026811680B4313600268D36932
:1008A0009B07FCD4704703681A7ED20702D41A7ED5
:1008B0009207FCD57047002203685A83704703688B
:1008C000187E4007C00F70470368187EC009704744
:1008D000802302685B42117E0B43137670470368E6
:1008E000588B8007C00F704702230268518B0B435F
:1008F000538370470368187EC007C00F70470368B2
:10090000188DC0B2704703681A7ED207FCD589B231
:10091000012019857047012203689A7570470122EA
:1009200003681A7570470123026811680B4313604E
:1009300003681A68D207FCD4DA69D207F9D4704781
:100940000223026811680B4313600368DA69920797
:10095000FCD430215A8B8A43110010220A435A8357
:100960000268D3695B07FCD4704780230268DB020E
:10097000116851680B4353607047000003680349D6
:100980001A685A680A405A607047C046FFFFFBFF6A
:10099000032230B5036811401C68074D5A680904EA
:1009A0002A40E4061143640F5960052C03D1026804
:1009B000D3695B07FCD430BDFFFFFCFF036828331D
:1009C00019700268137E5B07D80F002B04DA01232D
:1009D000508B4007C00F5840704703681868C00626
:1009E000400F043843425841C0B270470368187E34
:1009F0004007C00F70470368187EC007C00F7047DC
:100A00000368588BC006C00F70470368187E8007C4
:100A1000C00F70470368588B0007C00F704703680A
:100A20001A68D206520F052A02D11A7E9207FCD507
:100A300028331878C0B270470368104A934213D025
:100A40000F4A934212D00F4A934211D00E4A93425A
:100A500010D00E4A93420FD001200D4A40429342DB
:100A600001D1063040B270470020FBE70120F9E7D2
:100A70000220F7E70320F5E70420F3E7000800422F
:100A8000000C004200100042001400420018004216
:100A9000001C0042F8B5FFF7CFFF00282CDB1D4BF0
:100AA000C000181805230479C3560320FF221840FC
:100AB000C0008240C021D2438140002B1DDB1F2596
:100AC00001201D40C026A840134D7600A851C02625
:100AD0009B089B005B19B6009F593A4011439951FE
:100AE00028603F2323408024E4011C430B4B5C809F
:100AF0005A7852B2002AFBDBF8BD0F200340083BB6
:100B000007489B089B001B18D86902401143D96114
:100B1000E7E7C046881E000000E100E0000C00404E
:100B200000ED00E0F8B504000F0016001D00FFF70F
:100B3000B1FF2000FFF7A0FE1C21BB000B40710796
:100B40002268090C0B431360842322689375012FDC
:100B50001AD11021012E00D008390C4B69431868B6
:100B6000C00000F089FE0722216802408B895203F1
:100B7000DB04DB0C13438B81226803049089DB0CBC
:100B8000400B400318439081F8BDC0461C00002074
:100B900070B504000D001600FFF77CFF2000FFF782
:100BA000C2FE1C2221686D000B6893431A001023BB
:100BB00013430B60FF2123680D405D62002E04D0BB
:100BC00001232268516A0B435362072322689375FD
:100BD0002268D3695B07FCD470BD01207047000018
:100BE00010B50368014A1B6A984710BD1304000042
:100BF0000300FC33D96F9A6F914203D0DB6FC018AA
:100C0000007D704701204042FBE710B504000069F9
:100C1000FFF732FE22000023FC329367D3679E2247
:100C20009200A4186366A36610BDF0231B0119404F
:100C3000802306209B0099420AD00133FF33013004
:100C4000994205D0802300205B00994200D10530F5
:100C500070470F2001400020012903D00239481EAF
:100C60008141481C70470000B923F0B5182785B0B2
:100C700002919B000400C05C3B0008214343324EBC
:100C80001500F318595600F043FD304B0821E05C85
:100C90003B004343F318595600F03AFD2C4BE25CFD
:100CA0000393022A09D11133E05CFF2805D0082103
:100CB0004743F719795600F02BFDBA27BF00E05DD6
:100CC000FF2819D0012100F0AFFC1822E35D214973
:100CD0005A43B356B618DB015818BB21890060503F
:100CE0001D4901225B18BC218900635071688A404C
:100CF000BD21890062501A600122029B1100206907
:100D0000FFF710FF29002000FFF78FFF29000600E2
:100D10002000FFF79EFFF0221540303D6A4255410A
:100D200003003100206901220095FFF775FD0B4B90
:100D30002069E25C039BE15CFFF78BFD2069FFF714
:100D4000A8FD05B0F0BDC046381A0000E50200005D
:100D5000E70200001844004114440041E60200008C
:100D6000AF2210B504000021520000F03EFE230027
:100D70000022FC3320005A669A6610BDF7B51D00AC
:100D800008AB1B780400009309AB1B781600019395
:100D900000234360FA239B008360104B0F0008334D
:100DA00003601430FFF7DCFF20007D30FF30FFF7D9
:100DB000D7FFB9239B002761E654094B009AE554FD
:100DC000084B2000E254019A074BE254BA22E93B57
:100DD000FF3B9200A3541032A354FEBDB81E000086
:100DE000E5020000E6020000E70200000300FC3319
:100DF000586E9B6EC01A01D55F30FF30704710B53A
:100E0000040020007D30FF30FFF7F0FF0028F8D10C
:100E10002069FFF748FD10BD10B51430FFF7E6FF5D
:100E200010BD0300FC33596E9A6E914205DB5A6E79
:100E3000986E801A5E30FF307047986E5B6EC01AF5
:100E40000138F9E710B57D30FF30FFF7EAFF10BD3C
:100E500070B504000069FFF742FD002805D0206945
:100E6000FFF74DFD2069FFF73FFD2069FFF727FDE4
:100E7000002824D025002069FFF741FDAF21FC3573
:100E80000600A86F4900013000F07CFDEB6F99422D
:100E900003D0AB6FE3181E75A967BA239B00E35C10
:100EA000FF2B0CD020001430FFF7BBFF092806DC15
:100EB000BB23BD229B009200E358A2581A60206910
:100EC000FFF718FD00281DD020007D30FF30FFF710
:100ED0008DFF002825D09E239B00E618B26E736E0E
:100EE0009A421BD0BE22AF21B36EB06EE3185200FF
:100EF000013049009D5C00F045FDB1662069E9B212
:100F0000FFF701FD2069FFF7DFFC002805D020690D
:100F1000FFF7DEFC2069FFF7CEFC70BD01256D42B6
:100F2000ECE72069FFF7FBFCECE70000F7B50400F5
:100F300000690E00FFF7DEFC002847D1AF277F00D5
:100F40009E239B00E518686EAB6E3900013001935B
:100F500000F018FD019B994224D1EFF31083DB07C9
:100F60000ED4204B5B68DB05DA0D002BE8D0103A7D
:100F700053B212060DD49B081B4AC0339B009B58EA
:100F80002069FFF7B7FC0028DAD02000FFF760FFE8
:100F9000D6E70F221340083B144A9B089B009B187E
:100FA0001B68EDE7AF21686E4900013000F0EAFCF4
:100FB000AB6E994205D0BE226B6E5200E3189E5470
:100FC00069662069FFF7A7FC0120FEBD20007D3087
:100FD000FF30FFF70BFF0028B0D131002069FFF789
:100FE00092FCF1E700ED00E000E100E01CED00E024
:100FF00070B50500FC35EA6FAB6F04009A421DD056
:10100000AF21EB6F4900C318E86F1E7D013000F07F
:10101000B9FCE967BA239B00E35CFF2B0CD02000EE
:101020001430FFF7FEFE0A2806DDBC23BD229B001C
:101030009200E358A2581A60300070BD0126764233
:10104000E8E7FEE7034B10B51B68002B00D098477C
:1010500010BDC046AC0800200F4A1048110010B562
:101060000F4B824202D0934209D11300824209D130
:1010700000F090F800F076F8FEE710CB10C1814246
:10108000FBD3F3E7074A8B42F2D00021064B9A428A
:10109000EED202C2FBE7C046000000204000002064
:1010A000001F000040000020BC08002010B500F028
:1010B00056F8002801D100F047F810BDF7B51348E5
:1010C000012284461249134C8E68636805689B0EA2
:1010D0001340019288686268019F920E3A40674609
:1010E0003F6893420ED1BD420CD186420AD35B19B0
:1010F000FA254868AD00861B07486B437043000D16
:10110000C018FEBD3D0013000600E3E7B008002054
:1011100010E000E000ED00E05555000070B5041E41
:1011200011D0FFF7CBFFFA260500B60000F016F845
:10113000FFF7C4FF401BB042F8D3FA23013C9B00E9
:10114000ED18002CF4D170BD10B5034A13680133BB
:10115000136000F04DFB10BDB00800207047002068
:101160007047704710B500F0C5F800F011FCFFF7AC
:10117000F8FF0120FFF7D2FFFEF7D4FFFFF746F894
:10118000FFF7ECFF024B002BF8D000E000BFF5E7C3
:10119000000000001E2270B546484749436893434B
:1011A0001C3A1343436008238C6923438B61434CEF
:1011B000434B9C829C8A14439C82DC681442FCD082
:1011C0000124404A14701578254203D055786DB239
:1011D000002DF8DB01249460547864B2002CFBDB12
:1011E000394C5460547864B2002CFBDB8224E40157
:1011F0005480547864B2002CFBDB02249C840E34AF
:10120000DD682542FCD0314CDC621024DD682542CB
:10121000FCD09D8C2E4C2C439C841024DD682542F0
:10122000FCD002249D8C80262C439C844024DD68C5
:101230003542FCD0DD682542F9D01024DD68254216
:10124000FCD000249460547864B2002CFBDB214C69
:101250005460547864B2002CFBDB1C6A1E4D2C4099
:1012600080251C621C6AAC431C62032393601B4BE9
:10127000536053785BB2002BFBDB0023FF240B721F
:10128000174A4B728B72CB72164B1A60164B174A69
:101290001B6811689A065B01C90E2340520F1202A7
:1012A0000B431343124A1385802342681343436060
:1012B00070BDC04600400041000400400C06000024
:1012C00000080040000C004001050100B905FF7D49
:1012D000040A000000070300FFFCFFFF03060100F3
:1012E000006CDC021C000020246080002060800074
:1012F00000400042FA212E4B10B51868890000F01A
:10130000BBFA802301385B0498424FD229492A4A0C
:101310004860C020136A00061B021B0A03431362C5
:1013200000238B6007330B608021136A09061B02C0
:101330001B0A0B431362FC22204B196A0A431A62F0
:10134000FF22196A12020A431A62A022196AD20203
:101350000A431A621A4B1C005A7852B2002AFBDB6D
:10136000184A5A80184B1A00597EC9090129FBD026
:10137000C821890099800521D970537EDB09012B92
:10138000FBD0C02300205B011361907000F022F8B5
:1013900063785BB2002BFBDB0C4B0D4A6380D37987
:1013A000DB09012BFBD04123537010BDFEE7C04683
:1013B0001C00002010E000E000ED00E00004004010
:1013C000000C00401E400000004000422140000090
:1013D000004800421F4900B50B004A7ED209012A8D
:1013E000FBD001380A282FD800F03CFA1B2E2E2EF5
:1013F0002E2E062E2E2411001A6917490A400F219D
:101400001A615A788A43110001220A4310E01A69CE
:1014100011490A400F211A615A788A4311000322A8
:10142000F3E71A690C490A400F211A615A788A4376
:101430005A7000BD1A6908490A400F211A615A788A
:101440008A4311000222E0E7F022196912050A43DB
:10145000F3E7C04600400042FFFFFFF0182343437C
:10146000F0B5684A0E009B18D968040085B08A0759
:1014700018D50E2816D1644A1300D179C90901295B
:10148000FBD0B605B60D1681DA79D209012AFBD058
:10149000022219780A431A70DA79D209012AFBD09C
:1014A00005B0F0BD0825594F294200D194E03A68B3
:1014B000102A02D044D9103AD64012255D5FCB06DF
:1014C00042D50421200000F023F92F12504BBA001E
:1014D000D458504BEDB2DA5D002A5CD10132DA55B6
:1014E00068460F324C4900F077FA6A467B009B5AF7
:1014F0008022D2011A43494B5A805A78D209012AD4
:10150000FBD00222974223D9238893432380E37B95
:10151000DB09FCD12288403313432380E37BDB09C2
:10152000FCD10C35B6B26D002E53E37BDB09FCD148
:101530002288023313432380E37BDB09FCD1AFE72E
:101540001020821A9640B8E78B06A9D50521B9E785
:1015500023689343324A23601300A1681142FCD1EF
:101560000222E16B0A43E263A2681A42FCD1103501
:10157000AD0065196E60A2681A42FCD1294A226446
:10158000A2681A42FCD1022221680A432260A268A2
:101590001A42FCD184E7022F07D90C35B6B26D0090
:1015A0002E53E37BDB09FCD17AE7022362791343F4
:1015B00063711B4B1A00A1681942FCD11C35AD00A8
:1015C0002E51A3681342FCD1022321790B432371CE
:1015D000A3681342FCD163E70121200000F024F846
:1015E0003B68082B02D009D9083BDE4000217F2E42
:1015F00000D90121200000F047F851E7EB1A9E4086
:10160000F4E7C046381A00000048004220000020DD
:1016100004000020B4080020EC1E0000000C004074
:10162000FF0F7F00FFFF0000182310B50824584368
:10163000134A13181C57013412D001245B688256D8
:101640009C4003290CD808000E49D2015218D31827
:10165000403300F007F90210060B022119705460A4
:1016600010BD0621197054609461F9E706211970C4
:1016700054605461F4E7422119709460F0E7C04669
:10168000381A0000004400411823F0B508245843DC
:10169000114A13181C5701341BD0012635005F680E
:1016A0008356BD400D4ADB019A18906805420BD164
:1016B0000C00601E8441D219403210783440033649
:1016C000A400B04320431070044A9B18002901D1A4
:1016D0005D61F0BD9D61FCE7381A000000440041E7
:1016E000182310B50824434307490020CA1814578B
:1016F000013408D05B560549DB015B18186A536852
:10170000D8400123184010BD381A000000440041A1
:10171000182370B5082643432A4AD518AE5734001B
:10172000013607D0072907DC00291DDA01314C42B8
:101730004C416442200070BD0B00083BDBB200242A
:10174000032BF7D8092903D12100FFF76DFFF1E73B
:101750000A2904D10839FFF767FF0024EAE70024CB
:101760000B29E7D10A39F0E76C68012520009B5668
:10177000C9B262082840DB012C4211D012480E3554
:101780001B189A1830321078090128400143C9B259
:10179000117041221B19403319780A431A70DCE793
:1017A0000F26094D5B199A18303215781B19B5436D
:1017B0002943117041224033197804000A431A70FA
:1017C000B8E7C046381A000000440041F8B50500EB
:1017D0000E0017000024BC4208D02B682800315DA1
:1017E0001B689847002801D00134F4E72000F8BDB9
:1017F000164A10B51368591C27D0013B1360002B03
:1018000023D172B68122124B92000433934213D338
:10181000104A01211000147D0C42FCD02021148BB1
:10182000FF319B085B0021431183D3610A4B138076
:101830000123027D1A42FCD0BFF34F8F074B084AA9
:10184000DA60BFF34F8FC046FDE710BD24000020D3
:10185000000000000040004102A5FFFF00ED00E095
:101860000400FA0502B4714649084900095C4900C0
:101870008E4402BC7047C046002243088B4274D39A
:1018800003098B425FD3030A8B4244D3030B8B4281
:1018900028D3030C8B420DD3FF22090212BA030C8A
:1018A0008B4202D31212090265D0030B8B4219D36B
:1018B00000E0090AC30B8B4201D3CB03C01A52418B
:1018C000830B8B4201D38B03C01A5241430B8B42D3
:1018D00001D34B03C01A5241030B8B4201D30B03BC
:1018E000C01A5241C30A8B4201D3CB02C01A5241E3
:1018F000830A8B4201D38B02C01A5241430A8B42A6
:1019000001D34B02C01A5241030A8B4201D30B028E
:10191000C01A5241CDD2C3098B4201D3CB01C01AA8
:10192000524183098B4201D38B01C01A52414309B2
:101930008B4201D34B01C01A524103098B4201D3A0
:101940000B01C01A5241C3088B4201D3CB00C01A0D
:10195000524183088B4201D38B00C01A5241430885
:101960008B4201D34B00C01A5241411A00D20146AA
:10197000524110467047FFE701B5002000F006F81D
:1019800002BDC0460029F7D076E770477047C046D1
:1019900070B500260C4D0D4C641BA410A64209D155
:1019A000002600F02BF80A4D0A4C641BA410A64236
:1019B00005D170BDB300EB5898470136EEE7B30090
:1019C000EB5898470136F2E7280000202800002055
:1019D0002800002034000020002310B59A4200D1D6
:1019E00010BDCC5CC4540133F8E703008218934265
:1019F00000D1704719700133F9E70000F8B5C0460F
:101A0000F8BC08BC9E467047F8B5C046F8BC08BC98
:101A10009E4670470000000000000000C70500005F
:101A2000B5040000B1040000D9040000F504000072
:101A300013060000DB040000000000000B000000A3
:101A4000020000001C000000FF00010101010B006A
:101A5000000000000A000000020000001C0000005E
:101A6000FF00000100010A00000000000E0000005D
:101A70000800000004000000FF00000000000E004D
:101A80000000000009000000040000001C0000002D
:101A9000FF00010001000900000000000800000034
:101AA000040000001C000000FF0000000000100007
:101AB000000000000F000000040000001C000000F7
:101AC000FF00010301030F000000000014000000EC
:101AD000050000002C000000FF00020002000400CE
:101AE00000000000150000000800000004000000D5
:101AF000FF00FFFFFFFF05000000000006000000E0
:101B0000040000001C0000000600000100010600A7
:101B10000000000007000000040000001C0000009E
:101B20000700010101010700000000001200000091
:101B3000040000001C000000FF000003000302007E
:101B40000000000010000000040000001C00000065
:101B5000FF0000020002000000000000130000006F
:101B6000050000002C000000FF000300030003003C
:101B70000000000011000000040000001C00000034
:101B8000FF0001020102010000000000020000004D
:101B900001000000020000000000FFFFFFFF020044
:101BA0000100000008000000010000001800000013
:101BB0000200000400040800010000000900000009
:101BC00001000000180000000300010401040900E6
:101BD00000000000040000000100000018000000E8
:101BE00004000000000004000000000005000000E8
:101BF00001000000180000000500010001000500C0
:101C000001000000020000000100000000000000D0
:101C10000A00FFFFFFFF02000000000016000000A6
:101C20000200000004000000FF00FFFFFFFF0600AD
:101C30000000000017000000020000000400000087
:101C4000FF00FFFFFFFF0700000000000C00000086
:101C50000300000004000000FF00FFFFFFFF0C0076
:101C6000010000000A000000030000000400000062
:101C7000FF00FFFFFFFF0A00010000000B00000053
:101C80000300000004000000FF00FFFFFFFF0B0047
:101C900001000000030000000B0000000400000031
:101CA000FF00FFFFFFFFFF00000000001B0000001F
:101CB0000B00000004000000FF00FFFFFFFFFF001B
:101CC000000000001C0000000600000000000000F2
:101CD000FF00FFFFFFFFFF000000000018000000F2
:101CE0000600000000000000FF00FFFFFFFFFF00F4
:101CF00000000000190000000600000000000000C5
:101D0000FF00FFFFFFFFFF000100000016000000C2
:101D10000300000000000000FF00FFFFFFFFFF00C6
:101D20000100000017000000030000000000000098
:101D3000FF00FFFFFFFFFF00000000001600000093
:101D40000200000000000000FF00FFFFFFFFFF0097
:101D5000000000001700000002000000000000006A
:101D6000FF00FFFFFFFFFF00000000001300000066
:101D70000200000000000000FF00FFFFFFFFFF0067
:101D80000000000010000000020000000000000041
:101D9000FF00FFFFFFFFFF00000000001200000037
:101DA0000200000000000000FF00FFFFFFFFFF0037
:101DB0000000000011000000020000000000000010
:101DC000FF00FFFFFFFFFF00000000000D0000000C
:101DD000040000000C000000FF000100FFFF0D00E8
:101DE0000000000015000000050000000C000000CD
:101DF000FF000300FFFFFF000000000006000000DE
:101E0000040000000C000000FF000001FFFFFF00C5
:101E10000000000007000000040000000C000000AB
:101E2000FF000101FFFFFF000000000003000000B1
:101E30000100000002000000FF00FFFFFFFFFF00A5
:101E4000000000000200000001000000020000008D
:101E50001400FFFFFFFF020000000000060000006A
:101E60000100000002000000060000010001060061
:101E70000000000007000000010000000200000058
:101E800007000101010107000008004214090000D9
:101E9000000C0042150A000000100042160B000062
:101EA00000140042170C000000180042180D00003A
:101EB000001C0042190E000000000000000000009D
:101EC0002D0F0000CD170000450E0000FF0D000093
:101ED000190E0000F10F0000F10B0000E10B0000F3
:101EE000690C00000B0C0000DB0B00001A001A004C
:101EF0001B001B001C001C001D001D00000000003A
:101F0000A0B000000020004200240042002800424F
:101F1000002C0042003000420034004240420F00DA
:101F200008000000FFFFFFFFDD0000004907000080
:101F300081070000B5000000000000000000000064
:040000030000105990
:00000001FF
