:102000000080002031340000193400001934000031
:1020100000000000000000000000000000000000C0
:102020000000000000000000000000001934000063
:10203000000000000000000019340000AD34000072
:10204000193400001934000019340000193400005C
:102050001934000019340000193400001D34000048
:10206000193400001529000019340000193400004B
:10207000A5270000193400002529000019340000AC
:10208000193400001934000019340000193400001C
:102090000000000019340000193400001934000059
:1020A00019340000193400001934000019340000FC
:1020B0000000000010B5064C2378002B07D1054B1B
:1020C000002B02D0044800E000BF0123237010BDA4
:1020D00020010020000000001C680000044B10B527
:1020E000002B03D00349044800E000BF10BDC046E8
:1020F00000000000240100201C68000010B5154CF1
:1021000000222000682100F027FB2000124900F087
:1021100041FB2000114900F041FB01210F2001F09B
:1021200019FD0121102001F015FD0121112001F000
:1021300011FD0121122001F00DFD0121042001F00B
:1021400009FD0021052001F005FD0021062001F018
:1021500001FD10BD44010020792200002123000070
:1021600030B5052083B001F067FD012864D005205B
:1021700001F062FD00283DD0052001F05DFD012841
:1021800000D169E0FF21394D2B8800911CB2E21784
:10219000A01850400023FF22002180B201F030F946
:1021A0000500002C36DC00211120002C2BD101F081
:1021B000C5FB0021122001F0C1FBFF212C4B1C8824
:1021C000009124B2E217A01850400023FF22002102
:1021D00080B201F015F90500002C24DC00210F204D
:1021E000002C32D001F0AAFB2900102001F0A6FB40
:1021F00003B030BD062001F01FFD0128BCD1022133
:102200001C480170BEE701F099FB2900122001F083
:1022100095FBD2E70100112001F090FB0021122074
:1022200001F08CFBC9E701000F2001F087FB0021C2
:10223000102001F083FBDBE7053001F0FDFC0128F5
:1022400000D094E70B4C20709CE701F077FB002155
:10225000102001F073FBCBE7062001F0EDFC002815
:1022600000D08FE70322034B1A708BE73E0100205A
:10227000400100200000002070B5041E29DD234D20
:10228000280000F099F80300C1B2FF20204A18404E
:10229000117008281DD81F4B81005A589746042CEE
:1022A00017DD280000F088F80400280000F084F80A
:1022B0002102194B014308B21880280000F07CF875
:1022C0000400280000F078F82502144905432AB2DA
:1022D0000A8070BD022CFCDDEFE7022CF9DD28003E
:1022E00000F06AF80400280000F066F823020A4DA6
:1022F000034318B22880ECE70021042001F06EFCB3
:10230000E7E70121042001F069FCE2E74401002035
:102310003C0100206C6200003E01002040010020D2
:1023200070B5194B1A78D0B2072A24D0072810D8D4
:10233000012822D0062819D1144D154C2B882000D5
:10234000190A00F061F82A882000D1B200F05CF888
:102350000BE009280AD1042001F06EFC411E481E42
:1023600081410B48013100F04FF870BD0021084851
:1023700000F04AF8F9E7074DDFE7074904480C7811
:10238000E1B200F041F8F0E73C0100203E010020FE
:102390004401002040010020000000200020704780
:1023A0008C238E225900435851004058181A01D5E9
:1023B0000130FF307047C0468C228E2310B55B0081
:1023C0005400C1580259914209D0C1584418FF2104
:1023D000227EC45801342140C150100010BD01209C
:1023E0004042FBE78E238C225B005200C15882588A
:1023F000914203D0C358C018007E70470121484263
:10240000FBE7C0467047C04670B5837D002B1BD0EC
:102410008822892594000419AA00236885182E684B
:10242000263A0133FF3A1340B3420DD023682D689A
:1024300001331A40AA4209D0902326685D00801912
:1024400041550120226070BD0020FCE70120FAE721
:10245000F8B5DE46574645464E460400E0B593467D
:102460000F000025002A00D1F5E088219D488A0050
:10247000A618043281469246032358465946A24480
:1024800018400B4268D0012843D0022820D022688F
:10249000397813684B4500D01EE1A07D002800D19B
:1024A000D9E05246FF20336812680133034093425B
:1024B00000D1D0E0534635681A6801352840904273
:1024C00005D09022356863195500595530600125B3
:1024D00021680B68795D4B4500D0F7E0A07D0028AE
:1024E00000D1B8E05246FF20336812680133034040
:1024F000934200D1AFE0524633680133184013686D
:10250000984205D03268A318902252009954306046
:10251000013521680B68795D4B4500D0CDE0A07D89
:10252000002800D197E05246FF203368126801333B
:102530000340934200D18EE0524633680133184085
:102540001368984205D03268A3189022520099541B
:1025500030600135AB457ED021680B68795D4B4515
:1025600000D07FE0A07D002875D05246FF20336860
:1025700012680133034093426DD0524633680133F1
:1025800018401368984205D03268A3189022520070
:1025900099543060216801350B68A846795D4B4538
:1025A0006BD1A27D002A56D0504633680268FF20C6
:1025B0000133034093424ED0534635681A680135C3
:1025C0002840904205D0902235686319550059552E
:1025D0003060414620684D1C0368795D4B4557D1FA
:1025E000A27D002A37D0504633680268FF200133AD
:1025F000034093422FD0534635681A68013528406E
:10260000904205D0902235686319550059553060C5
:10261000414620688D1C0368795D4B4543D1A27DFE
:10262000002A18D0504633680268FF200133034067
:10263000934210D0534635681A68013528409042BD
:1026400005D09022356863195500595530604546CC
:102650000335AB4580D128003CBC90469946A24644
:10266000AB46F8BD200098470028F4D0216801351A
:102670000B68A846795D4B4593D020009847002809
:10268000E9D0414620684D1C0368795D4B45A7D0D1
:10269000200098470028DED0414620688D1C036842
:1026A000795D4B45BBD0200098470028D3D04546E4
:1026B0000335AB4500D04FE7CDE720009847002811
:1026C000C9D00135AB4500D046E7C4E720009847A4
:1026D0000028C0D001351CE7200098470028BAD058
:1026E0000125F5E609240000F8B51E00FA23CE46C0
:1026F0004746884699008023002580B51700154A73
:1027000081600832590004008946456002600A0071
:102710001830002103F0B3FC8C2042002000A550AB
:1027200021300432A55000214A46FF3003F0A7FCB7
:102730008823892299006018056040469300E118BB
:102740000D602061277520006675A5750CBC90464C
:102750009946F8BD9062000070B50400006900F071
:1027600019FB206900F0C4F9207D094D43001918B8
:10277000CA000821AB18595601F078FA0821607D8B
:1027800044002218D300ED18695601F06FFA70BDAD
:10279000B46200008C239A00815070478B239A000A
:1027A00081507047F8B5544C206900F0F7F90028C3
:1027B00000D1F8BD206900F001FA00282ED120696F
:1027C00000F008FA002804D0206900F0FDF9002884
:1027D0001FD1206900F0FEF900283DD0206900F0EB
:1027E000A3F92069032100F0A9F9206900F0F8F9A4
:1027F0000028DED0882600218B20B200A1500432B0
:10280000A15085000131A1756459002CD1D0A04799
:10281000CFE7206900F0E4F90028DAD1206900F060
:1028200083F90321206900F089F98C239F00E15985
:10283000002907D08C267200A0580432A558401BEE
:1028400007D488478C2700237900635004316350F4
:10285000AFE70130FF30F4E7206900F0A9F9002864
:10286000A7D0206900F0BCF9002822D08820892157
:1028700086008B00A559E758EA1B01D50132FF32CB
:10288000FF21002A10D08920882386009F00A559A7
:10289000E259954208D0FF27A059A35925180133C2
:1028A00021311F40695CA751206900F067F9A075CC
:1028B0007FE78C268E27FF257600A3597F00E259FB
:1028C000013320692B40934213D000F08FF9A159B6
:1028D000E35901310D409D4203D0A759A551E2199A
:1028E0001076206900F020F90321206900F026F914
:1028F0005FE700F011F9F7E74401002010B5152358
:10290000142202490248FFF7EFFE10BD7C090020A7
:102910004401002010B5024800F06AFC10BDC0461A
:102920007803002010B5024800F062FC10BDC046DC
:1029300074060020F0B501260325164F83B0380039
:10294000154900F043F81549154800F03FF81549BE
:10295000154800F03BF81549154800F037F81549BF
:10296000154800F033F8154C1549200000F02EF8FA
:1029700039000123002201960095124800F0E8FB7F
:102980001E231F222100019600950F4800F0E0FB56
:1029900003B0F0BD7009002000080042000C0042A6
:1029A0007409002000100042780900200014004241
:1029B0007C090020001800428009002084090020C2
:1029C000001C00427803002074060020016070475C
:1029D0009446F0B505009C1E621E9441624605A80F
:1029E000067828689207076824063A43144304606F
:1029F00007202D680840B1016F680843022B04D0FE
:102A00005B0307433B436B60F0BD0023F9E7C0461F
:102A100030B5C0250468AD03236812052A401A4367
:102A2000C02309049D0229400A43226000684468CB
:102A30002543456030BDC0460121026813680B4341
:102A4000136000680268D307FCD4C369DB07F9D4BC
:102A50007047C0460221026813680B431360006888
:102A6000C2699307FCD470470268137EDB0702D467
:102A7000107E8307FCD57047002203685A83704795
:102A80000368187E4107C80F7047C0460368187E68
:102A9000C0097047802302685842117E08431076AF
:102AA0007047C0460368588B8107C80F7047C046FF
:102AB00002210268538B0B43538370470368187ECF
:102AC000C107C80F7047C0460368188DC0B2704771
:102AD0000268137EDB07FCD589B20120118570479F
:102AE000012203689A757047012203681A757047BE
:102AF0000221026813680B4313600268D3699B07C5
:102B0000FCD43021538B8B4310210B43538300683B
:102B1000C2695307FCD47047026813688023516868
:102B2000D80208435060704702680349136853682D
:102B30000B4053607047C046FFFFFBFF10B50268B3
:102B40001368DC06630F052B08D003205468084087
:102B50000949030421401943516010BD03245368FF
:102B60000C40054924041940214351600268D06992
:102B70004307FCD4F1E7C046FFFFFCFF28230268AF
:102B8000D1540168087E4307D80F002B04DA0123D3
:102B90004A8B5107C80F58407047C04603681868F1
:102BA000C1064A0F043A53425A41D0B27047C04658
:102BB0000368187E4107C80F7047C0460368187E37
:102BC000C107C80F7047C0460368588BC106C80FBD
:102BD0007047C0460368187E8107C80F7047C0461B
:102BE0000368588B0107C80F7047C0460268136816
:102BF000D806410F052903D02820125CD0B27047B7
:102C0000137E9B07F8D4137E9B07F9D5F4E7C046E3
:102C10000368314AF0B593420FD03048834251D017
:102C20002F498B4250D02F4CA3424FD02E4DAB4258
:102C30004ED02E4EB3424DD0F0BD002705242C4B74
:102C4000FA0099180A570879002A26DB1F27012560
:102C50001740C024BD40274E610075500321C02499
:102C6000B44693080A40D200FC3191409B00634473
:102C7000A700DC598C432100C02494400C43DC5154
:102C800035603F2580262840F30103431A484380DE
:102C900047787AB2002AFBDBCEE70F2515400321E7
:102CA000083DAE08B700C0260A40D2009640134B3C
:102CB000FC319C46914033006744FC698C432343BC
:102CC000FB61DEE70127B9E70227B7E70327B5E78E
:102CD0000427B3E70527B1E700080042000C0042D3
:102CE000001000420014004200180042001C004284
:102CF0000467000000E100E0000C004000ED00E08F
:102D0000F8B5CE464746060080B588461700994676
:102D1000FFF77EFF0121326813680B4313603568AB
:102D20002C68E307FCD4E869C307F9D442461C21A8
:102D300093007C071940200C0143296043468425F9
:102D400032689575012B1ED1013F794279414F427E
:102D500008214D460E4C3940206808316943C000B7
:102D600002F0D6FF0722316802408B895703DC044A
:102D7000E50C3D438D8136680004B189C20C4B0BD4
:102D80005F033A43B2810CBC90469946F8BDC046F9
:102D90001C000020F8B505000E001700FFF738FFF3
:102DA00001212A6813680B4313602C682068C3074D
:102DB000FCD4E269D307F9D41C21FF2023687600F4
:102DC0008B430C390B4323602C6806406662002F4E
:102DD00004D001232F687A6A1A437A6207212C688B
:102DE000A1752D68EE697307FCD4F8BD012070470A
:102DF000BA23BC225900435851004058181A01D533
:102E00005F30FF307047C046BC23BA225B005200DF
:102E1000C1588258914203D0C358C018007D7047F2
:102E200001214842FBE7C046B923F0B50400C6467D
:102E30009800205C0F00410015000A18082100B519
:102E4000414ED300F218515682B000F00FFF3F48B8
:102E5000205C43001A18D10008227318995600F01C
:102E600005FF3B48215C02295AD0BA208200A05CB1
:102E70009046FF281CD0012100F06CFE4346E15C27
:102E800048004218D200B3563249DB015818BB2122
:102E9000890060503048BC218446B6180122880061
:102EA000634471682350BD208A408600A2511A6095
:102EB0003B00012201212069F027FFF721FF802339
:102EC0003901206929409A0091423BD00132FF32FA
:102ED000914235D00139FF394B42594105264942CB
:102EE00031400F232B40012B28D0023B5A1E934127
:102EF0000133F0273D40303D6A42554101220095A3
:102F0000FFF766FD154D1248625D215C2069FFF7F1
:102F10007FFD2069FFF79EFD02B004BC9046F0BD26
:102F2000BE239A00A05CFF289FD041000B18082107
:102F3000DA00B318595600F099FE96E70023D8E757
:102F40000721CEE70621CCE7B4620000E5020000CD
:102F5000E70200001844004114440041E60200006A
:102F600010B504000069FFF767FDBA220023500086
:102F7000B8222350043023506530FF3021189000D0
:102F8000844664440B60236010BDC046B72399009B
:102F900010B544180431411823680A689B1A01D5FA
:102FA0005F33FF33002BF7D10069FFF75DFD10BDE4
:102FB000B822B723920094469900431860441968D8
:102FC0000268914205DB19680268501A5E30FF30D2
:102FD000704700681B68C01A0138F9E770B5BC2556
:102FE000BA2304006D004259580021588A422BD060
:102FF000AF2366596059A219167D0130590002F0BD
:103000000DFF30006151BA218A00A65CFF2E14D05A
:10301000BA23BC215A004E00A558A3599D420DDA8F
:10302000A559A258A91A01390A2906DDBC23BD25D4
:103030009A00AE00A158A4590C6070BDA558A659BD
:10304000711B5E31FF31EFE701256842DBE7C046C7
:10305000F0B50368364A1D6A04000E0083B095423D
:1030600063D1B9208100605C082147003B18314DD5
:10307000DA00AF18795600F0F9FD08212E48205CDF
:1030800043001A18D700EB19595600F0EFFD2B48F2
:10309000225C022A3BD0BA208700E05DFF2819D1CC
:1030A0003300012201212069FFF72AFE00230122BB
:1030B0000021206900930233FFF78AFC204E1F4B4A
:1030C0002069A25DE15CFFF7A3FC2069FFF7C2FC69
:1030D00003B0F0BD012100F03DFDE35D5A00D118C1
:1030E000CF00BB21E857174AC30198188A00A050A7
:1030F0001548BC2184460120ED196F688A00BD2166
:10310000B8406344A3508A00A0501860C8E7BE27A7
:10311000BB00E05CFF28BED041000A180821D700A0
:10312000EB19595600F0A2FDB5E7084AA847CFE7CA
:10313000292E0000B4620000E5020000E702000052
:10314000E60200001844004114440041130400004A
:10315000F8B5DE4657464E464546E0B51E000AAB7A
:103160008A461978FA2315000BAA17788946990020
:10317000AF23B84600271D4A816008325900040079
:103180008B46476002600A001430002102F077FF8E
:10319000BA2042002000A7507D300432A750002101
:1031A0005A46FF3002F06BFFB723B8229900930014
:1031B00060184A46E118076043460F6036025746DA
:1031C0003543B926FF20110427610D431F063D43F7
:1031D000B200A5500432A0541032A05420003CBCD0
:1031E00090469946A246AB46F8BDC04634670000FB
:1031F00070B504000069FFF755FC002800D06AE0B4
:103200002069FFF73DFC002835D12069FFF756FC07
:1032100000281ED0B726B825B000A90022186518CE
:1032200013682E68981B1AD45CD0296812689142E2
:1032300062D0BE20AF222B6841002868E618765C79
:103240000130510002F0EAFD296031002069FFF7EA
:103250003FFC2069FFF71AFC002805D170BD5F30E4
:10326000FF300028E1D13DE02069FFF713FC206921
:10327000FFF702FCF2E7BA262069FFF725FCAF2131
:1032800076000500A0594900013002F0C7FDBC23BB
:1032900058002258914203D0A359E0180575A15156
:1032A000BA25AE00A15DFF29AFD0BA22BC235500DC
:1032B0005E006059A159884218DAA0596259851AEE
:1032C000013D092DA1DCBB26BD22B000910025588F
:1032D00063582B6099E72069FFF7F6FB2069FFF739
:1032E000E7FB8DE72069FFF7FFFBB2E76159A359C0
:1032F0005D1A5E35FF35E4E7FF26A6E7F0B5D64652
:1033000046464F460500C0B500698A46FFF7D6FB22
:10331000B72399006E18002859D104316F18AF22D5
:103320003068510001303C6802F078FDA14235D18F
:103330000120304B8046994608E0AF2130684900B3
:1033400001303C6802F06AFDA14227D1EFF3108101
:1033500044460C420FD14A465068C305D90D002B94
:10336000EBD00C00103C62B223060DD49208224B25
:10337000C0329000C3582869FFF7A0FB0028DCD0BA
:103380002800FFF735FFD8E70F201C4C0240A44669
:10339000083A9308990061440B68ECE7AF22306863
:1033A0005100013002F03AFD3868814206D0BE2457
:1033B000504633686200EF18B85431602869FFF74F
:1033C0008FFB01201CBC90469946A246F0BDB82256
:1033D00094002F1930683B68C11A05D49FD151461B
:1033E0002869FFF775FBECE75F31FF31002996D1C3
:1033F000F5E7C04600ED00E000E100E01CED00E074
:1034000010B51C00431A0298511A001B584302F0D1
:1034100009FD001910BDC046FEE7C046034B10B5BC
:103420001868002800D0804710BDC04688090020D9
:10343000F8B5194D194FBD4211D0194EAE4225D0E5
:10344000BD4226D27B1E581B810801318C00220010
:1034500031002800A61902F009FE2C1901E02C0009
:103460000F4EBD420DD0A6420BD00E480E4A9042E0
:1034700007D2013A151AAF0801370021BA0002F04D
:10348000FEFD00F0E9F800F0BBF8FEE72C002E008E
:10349000E7E72C00E5E7C0460000002020010020FF
:1034A00020680000200100209C0F002010B500F0D3
:1034B000A3F8002801D100F093F810BD014B18606B
:1034C0007047C04688090020F0B5DE4657464E4694
:1034D0004546E0B583B00190002806D103B03CBC5E
:1034E00090469946A246AB46F0BD0127394A3A4874
:1034F0009668416894464C01E10F384C8246B946C3
:10350000256802E03D0019000600634652469868AF
:1035100057684A46BB0E134027688B42F2D1AF4230
:10352000F0D1B04201D92F00ECE7604643684D1955
:103530009A1B9600B71838013A1869011302481B04
:10354000D61882005319370DDE00BE19224F214DC7
:10355000B84600F04FF801214246A8685368276832
:103560009B0EBB460B4002E0BB461300504647464D
:10357000AA6892467A682768920E0A409A42F3D166
:103580005F45F1D1824501D95F46EDE79B445B463B
:103590005F465B016A68DB1B9F00101A5F44820074
:1035A000FB009F1B13181801844663441A029146BE
:1035B000FA204B441B0DFF1882009742C9D3FA230F
:1035C00098008346019F5E44013F0197002FC3D1BD
:1035D00084E7C04610E000E000ED00E08C09002028
:1035E00010B5034A13680133136000F04FFC10BD9F
:1035F0008C0900207047C046002070477047C046C5
:1036000010B500F0E9F802F0F9FCFFF7F7FF012030
:10361000FFF75AFF0E4C200001F0F2F9200001F0F4
:1036200065FAFEF76BFD0B4C002C07D0FEF798FDFA
:10363000FFF7E0FF00E000BF002CF7D1FEF790FDA0
:10364000FFF7D8FFFEF78CFDFFF7D4FFF6E7C04683
:1036500098090020000000001E214F4A4F4853687F
:103660008B431C390B435360826906310A430221A4
:1036700082614B4B4B488382828A0A4382820222B8
:10368000C3681A42FCD0012147480122017003E0BF
:1036900041784BB2002B02DA03781A42F8D10122AA
:1036A0004148826041784BB2002BFBDB3F4A4260CD
:1036B0003D4841784BB2002BFBDB8222D101418097
:1036C000394843785AB2002AFBDB022110223548E0
:1036D0008184C3681A42FCD010223549C162314846
:1036E000C3681A42FCD0818C324A0A43102182847A
:1036F0002C48C3681942FCD00221828C0A43828480
:103700004020284A7E31D3681942FCD0D368184241
:10371000F9D010222349C8680242FCD00023224974
:103720008B604A7850B20028FBDB234B1E4A4B606B
:10373000517848B20028FBDB1A4B2048196A014037
:1037400080201962196A8143196203231C4993601E
:103750005160154A507843B2002BFBDB00220F4921
:103760001848194B0A724A728A72CA721749036062
:1037700017480A6803689106D80E4B0F5101FF22C3
:103780000A40802102431B0212481343024A038568
:1037900053680B43536070470040004100040040F1
:1037A0000C06000000080040000C0040010501006C
:1037B000B905FF7D040A000000070300FFFCFFFFBE
:1037C000030601001C000020006CDC022460800065
:1037D0002060800000400042FA212E4B10B518688E
:1037E000890002F095FA802201385304984200D3F0
:1037F000FEE72949294A4860106A0302C0201B0AD3
:1038000000060343136200238B6007330B60116AC9
:1038100008028021030A0806FC2103431362204B9F
:103820001A6A0A431A62FF221102A022186A01438F
:103830001962186AD10201431A48196243785AB2D0
:10384000002AFBDB184941801848437EDA09012A27
:10385000FBD0C82105228B008380C2701348417EB3
:10386000CB09012BFBD0C0220023510101618370E1
:10387000002000F021F80B48427851B20029FBDB10
:103880000B4B43800B48C279D1090129FBD041235E
:10389000437010BD1C00002010E000E000ED00E0CF
:1038A00000040040000C00401E40000000400042A8
:1038B00021400000004800421E4A537ED9090129D8
:1038C000FBD00A281CD00ED801282AD0072822D1E4
:1038D000136919480F2103400120136153788B436A
:1038E0000343537070470B2815D1136912490B40DD
:1038F00013610F2303215078984308435070F1E778
:1039000013690D4803400F21136102235078884347
:1039100018435070E6E7F023064A1B0511690B4374
:10392000F1E70F211069044B18401061507888436B
:103930005070D7E700400042FFFFFFF04300F0B5B2
:103940007B4A040018180D00C1008F18FA6885B072
:10395000910702D50E2C00D16CE00826164211D03A
:10396000744E3368102B04D000D97DE01020C11AAA
:103970008D401223FF5ED3061BD4930600D57BE057
:1039800005B0F0BD2000012100F0E4F8694B186893
:10399000082802D065D8311A8D407F2D04D8002127
:1039A000200000F01BF9EBE70121200000F016F9E0
:1039B000E6E70421200000F059F95F4C3912625CFF
:1039C000FEB2002A62D1EC460132625464465B4B7F
:1039D00085CB85C462461F68802327604800845ACF
:1039E000DF015748274347804278D409012CFBD098
:1039F000022958D98F00022152483C5823888B4312
:103A00002380E27BD709FCD1402023880343238015
:103A1000E17BCA09FCD10C36ADB277003D53E37BA4
:103A2000D809FCD1022122880A432280E57BEE09D5
:103A3000FCD1A5E7444CE779FB09012BFBD0A80595
:103A4000820D414D2281E979CE09012EFBD002275A
:103A50002C783D483C432C70C379DA09012AFBD00D
:103A60008EE70838C54098E7103BDD401223FF5E23
:103A7000D30600D481E79CE70521200000F0F6F88A
:103A80002D4C3912625CFEB2002A9CD0022934D936
:103A90002C4B8F00F9580C36ADB274006552CA7BBE
:103AA000D009FCD16CE70220264B8900CF58274C67
:103AB0003A6882433A60B9682142FCD10222FB6B2A
:103AC00022481343FB63BC680442FCD11036B100AA
:103AD0007B185D601D4DBA682A42FCD11C481B4C06
:103AE0003864BE682642FCD102213B68174D0B4367
:103AF0003B60BA682A42FCD142E70224114B88009D
:103B0000C758124A797921437971B8681042FCD1BB
:103B10001C36B300DD510D4DB9682942FCD102229B
:103B20003C790A4814433C71BE680642FCD127E741
:103B3000B4620000200000209009002068670000A7
:103B4000000C00400400002000480042FF0F7F00EE
:103B5000FFFF000043001818082310B51D4CC000DB
:103B60002218D356013311D00457012052689040D7
:103B7000022923D00BD8002916D01749E3018C461F
:103B800063449C18422240342270986010BD03297F
:103B9000FCD11149E3018C4663449C180622403451
:103BA000227058605861F1E70B49E3018C46634489
:103BB0009C180222403422705860E7E70649E3016E
:103BC0008C4663449C1806224034227058609861E9
:103BD000DCE7C046B4620000004400410822430014
:103BE000F0B51818124DC0002C18A656721C1CD027
:103BF000676801242600BE4045570E48EB011A189D
:103C000095682E420BD10D00681E8541D7190422FC
:103C1000403738782C40A400904304433C70054D55
:103C2000AC466344002901D09E61F0BD5E61FCE7B3
:103C3000B4620000004400414300181808230949F9
:103C4000C0000A18D35601330AD0074B41569C4690
:103C5000C8016044016A52680120D14008407047A1
:103C60000020FCE7B46200000044004170B5082663
:103C7000420013182C4CDA00A518AB575E1C50D02C
:103C8000072907DC002917DA01314842484145423B
:103C9000280070BD0C00083CE2B2032A0AD80929AA
:103CA00035D00A2938D000250B29F1D10A39FFF780
:103CB00051FFEDE70025EBE76868C30715D41657F9
:103CC0001A4C0F25A446F301420863449E1830366F
:103CD00032781818AA430A43D1B2317041254030D6
:103CE00006782E4306700025D2E714570F4AE601E6
:103CF00094460C010F2143086644F31830331D78B5
:103D000029400C43E2B21A7033181800E6E700218C
:103D1000FFF720FF0025BBE70839FFF71BFF002551
:103D2000B6E71D00B4E7C046B4620000004400419D
:103D3000F0B5C64605000E001700002400B5002AA5
:103D400000D188E0072213003B403A423ED0012BCD
:103D500032D0022B28D0032B1ED0042B14D0052BDD
:103D60000AD0062B00D07AE02B682800315D1A6853
:103D7000904700286FD001342868315D036828001F
:103D80009847002867D001342A682800315D1368FD
:103D9000984700285FD001342868315D0268280008
:103DA0009047002857D001342B682800315D1A68ED
:103DB000904700284FD001342868315D03682800FF
:103DC0009847002847D00134A74244D02A682800E9
:103DD000315D1368984700283DD028680134026897
:103DE000315D2800A0469047002834D02B6801346C
:103DF0002800315D1A68904700282CD04146286879
:103E00008C1C0368315D28009847002823D0444665
:103E10002A6803342800315D1368984700281AD0B7
:103E2000414628680C1D0268315D28009047002833
:103E300011D044462B6805342800315D1A6890473C
:103E4000002808D0414628688C1D0368315D280091
:103E500098470028B7D1200004BC9046F0BD006808
:103E600009780268280090470028F4D001247BE7F5
:103E7000014B18607047C046240000200122024B0D
:103E8000504218607047C04624000020164A13684C
:103E9000591C03D0013B1360002B00D0704772B651
:103EA0008120124B810004338B4213D30121104A2D
:103EB000107D0142FCD02021108B9B08FF31014373
:103EC0005800012311830B49D0611180084A107DED
:103ED0000342FCD0BFF34F8F0749084ACA60BFF3C3
:103EE0004F8FC046FDE7C0462400002000200000A0
:103EF0000040004102A5FFFF00ED00E00400FA05CC
:103F00007047C04603000069F0B500280CD1EFF3FC
:103F1000108672B624241D5D002D12D1002E0ED104
:103F200062B6BFF36F8FF0BDEFF31084200072B65E
:103F300034255E5D002E00D0A6E0002CF0D00020DD
:103F4000F1E7002E00D11DE1002A00D11EE1032778
:103F50003E001640174229D0012E19D0022E0BD058
:103F6000DC691D6AAC4255D29F69601CBC46D861B1
:103F70000120644424780C70DC691E6AB44249D282
:103F80009F69651CBC46DD61644424780C54013093
:103F9000DC691E6AB4423DD29F69651CBC46DD6186
:103FA000644424780C540130824232D0DC691E6AA9
:103FB000B4422FD29F69651CBC46DD6164442478FD
:103FC0000C54DC691E6A01300500B44222D29E699D
:103FD000671CB446DF61644424780C54DC691F6AB2
:103FE0000130BC4216D29F69661CBC46DE61644447
:103FF00024780C54DC691E6AA81CB4420AD29E695B
:10400000671CB446DF61644424780C54E81C824287
:10401000CCD1DC691A6AA24200D084E700250121D4
:10402000DD611961EFF3108C72B623315D541131EB
:104030005F5C002F23D05D541D7A59686A01012509
:104040000C68A6180936FF3677788A182F437770E0
:10405000DF689668BD042F094E4D2E403E439660A2
:104060001A7A560189198F68BD0BAA038A6040210C
:104070001B7A08335E01A41927790F43277165461F
:10408000002D00D04FE74BE7002C77D00020002A0E
:1040900061D003273C001440174229D0012C19D0CD
:1040A000022C0BD0DC6A1D6BAC4255D29E6A601CA0
:1040B000B446D8620120644427780F70DC6A1D6B17
:1040C000AC4249D29F6A661CBC46DE6264442478D6
:1040D0000C540130DC6A1D6BAC423DD29F6A661CF9
:1040E000BC46DE62644424780C540130824232D0F3
:1040F000DC6A1D6BAC422FD29F6A661CBC46DE6236
:10410000644424780C54DC6A1E6B01300500B44210
:1041100022D29E6A671CB446DF62644424780C5441
:10412000DC6A1F6B0130BC4216D29F6A661CBC461B
:10413000DE62644424780C54DC6A1E6BA81CB44212
:104140000AD29E6A671CB446DF62644424780C5429
:10415000E81C8242CCD1DC6A1A6BA24200D0E2E6B3
:104160000025DD621D61EFF3108C72B634215D54C1
:1041700001315F5C002F00D05DE780E762B6BFF3DE
:104180006F8F83E762B6BFF36F8FDDE60020DC69D7
:1041900040E7C046FF3F00F010B50400806901F021
:1041A0005BFFA06A01F058FF200010BD10B50400AD
:1041B000806901F051FFA06A01F04EFF200001F07C
:1041C00031FC200010BDC0460369002B0ED1EFF377
:1041D000108172B62433C35CDAB2002902D162B610
:1041E000BFF36F8F002A12D100207047EFF31082C7
:1041F00072B63421435CD9B2002A02D162B6BFF351
:104200006F8F0029F0D0026BC06A101AEDE7016AC7
:10421000C069081AE9E7C046027AF0B513004168A0
:1042200008330C685D016719FB79FF26DD0721D58E
:10423000012543695201FD718F18002B1BD1BB680A
:104240009B049B0C0362036A002B35D0846A456192
:104250007C60EFF3108272B62427C5551037C35D1A
:10426000D9B2002B1CD03523C554002A02D162B626
:10427000BFF36F8FF0BDBB689B049B0C0363036BA4
:10428000002B19D00021846941617C60EFF310821A
:1042900072B63427C555103FC35DD9B2002BE2D1A9
:1042A00035254155002A02D162B6BFF36F8F4168B0
:1042B00082680C68324052010126A7180937FF377F
:1042C0007B78C56833437B708A1897680A4EAB04C5
:1042D0001D0937402F439760027A5701C9198B682F
:1042E0009D0BAE038E604021007A08304201A41875
:1042F00027790F432771BDE7FF3F00F0F0B5C646B1
:10430000040000B508000E0001F09CFE050020002E
:1043100001F078FF0323013040009C4628706B7049
:10432000022E00D8BAE06246F71E7F0817402278B6
:104330000021013B002A00D186E0601CAA70032402
:10434000032266456CD06346E954042301329E4241
:1043500065D97AB2002F2DD0012A1BD0022A0CD0A9
:104360000278002A00D16FE00527EA5401300522C7
:104370000234BE4254D0E95502330278002A63D099
:104380005C1CE4B2EA5401302200A64248D0023359
:104390002955DBB20778002F56D05A1CD4B2220020
:1043A0000130EF54A6423BD00233DBB21A0029554C
:1043B0009E4234D90278002A46D05C1CE4B2EA540A
:1043C000471C2200A6422BD0427802332955DBB28B
:1043D000002A39D05C1CE4B2EA542200A6421FD065
:1043E0007F7802332955DBB2002F2DD05A1CD4B26E
:1043F0002200EF54A64213D0C77802332955DBB20E
:10440000002F21D05C1CE4B222000430EF54A642FD
:1044100006D00233DBB21A0029559E42CAD81C00CE
:10442000264E3178002905D125480778002F25D15F
:10443000002C0CD1531E9A41D6B2280001F00CFE7C
:10444000300004BC9046F0BD1A001C00E8E71600DE
:10445000731E9E41A404A70CF6B21A4C290020003A
:1044600001F004FE184B19495C619A690A409A618F
:104470009869840BA2033A439A61DEE71100A3B264
:1044800098464B1E9941CEB2114C124B27882900F9
:10449000F818474401F0EAFD2780CEE7074A16786E
:1044A000002ECAD106480678002E03D10227022228
:1044B0000136D2E702270222B846E5E7440D002084
:1044C000480E0020C4090020540E0020FF3F00F0D9
:1044D0004A0E0020480D0020F0B5CE464746012088
:1044E000002680B5484B85B001AC1870814620008D
:1044F00098460F00267001F00FFB050001F0AAFBA3
:10450000210001F069FB4246281809302378A67182
:1045100081B21670092F42D04D463C4F65713D70F7
:104520003B4D2371A0232A003A4861802080E3712B
:104530006E3B237203CC03C2092113706B46364CC9
:10454000DE702180A146DC1C200001F0E5FA01F0BC
:1045500081FB210001F040FB3E7046463778002F7A
:1045600003D14A461488002C05D1012005B00CBCAB
:1045700090469946F0BD294E22002900300001F0F6
:1045800075FD274D27496E61A869A7040840A861F9
:10459000AB69BA0C9C0BA6033243AA61E5E71B4D3D
:1045A000287800281AD11D4E1A4A61802371494685
:1045B000A023228032006171E3716E3B237221CC13
:1045C00021C2174C13706661A56916480540A561A4
:1045D000A1698B0B9E033743A761C6E748460E4F80
:1045E0000C4A3D886180607109499F30E0716E38E6
:1045F000228020720922681823712100093501F0F8
:1046000035FD3D80B1E7C046440D0020480E002036
:10461000480D0020090200004A0E0020C4090020B5
:10462000540E0020FF3F00F0F0B5CE780C0093B0A0
:10463000022E1DD001F00EFB210001F0E3FA00284C
:1046400010D1012E1CD00025032E0ED1A378002BF3
:1046500041D1E488032C00D98FE104220420C94908
:10466000E4B214E0C1170C1AE50F280013B0F0BD36
:10467000C988C548FFF730FF451EA841C5B2F4E719
:10468000E588112D23D812221220C049ECB2002C4B
:1046900000D1AAE12200BE4F3D78002DE5D1BD4BEF
:1046A0001D78002D00D08EE1BB4EA404300001F037
:1046B000DDFCBA4ABA4956619069A70C084090617E
:1046C0009569AB0B9E03374301259761CDE7122215
:1046D0001224AE49DFE7022B00D16BE1012B00D1A0
:1046E0007AE10500032BC0D10F22AE4807683A409B
:1046F00015003E093735092A01DC303215000F213B
:1047000031400A0001A8C5713B0A3732092901DC92
:1047100030310A000F21194082710A003E0B3732F6
:10472000092901DC30310A000F2333401D0042719A
:10473000390C3735092B01DC30331D000F220A40BC
:10474000130005713E0D3733092A01DC30321300A6
:104750000F2131400D00C3703E0E3735092901DCB1
:1047600030310D000F223240130085703F0F373378
:10477000092A01DC3032130043703B003033092F2B
:1047800001DD37373B000F22874903700F683A403D
:1047900015003E093735092A01DC303215000F2398
:1047A00033401A00C573390A3732092B01DC303324
:1047B0001A000F230B4082731A003E0B3732092B6D
:1047C00001DC30331A000F2131400D0042733B0CE5
:1047D0003735092901DC30310D000F221A40110054
:1047E00005733E0D3731092A01DC303211000F23E9
:1047F0003340C17219003E0E3731092B01DC3033D2
:1048000019000F2535402A0081723F0F3732092DDC
:1048100001DC30352A003B0042723033092F01DDC4
:1048200037373B000F21614E0372376839400D0066
:104830003A093735092901DC30310D000F231340C7
:104840001900C5753E0A3731092B01DC30331900D8
:104850000F223240150081753B0B3735092A01DCE8
:10486000303215000F2119400A0045753E0C3732D1
:10487000092901DC30310A000F23334002751A0088
:104880003E0D3732092B01DC30331A000F21314045
:104890000D00C2743B0E3735092901DC30310D00A3
:1048A0000F261E40320085743F0F3732092E01DC7F
:1048B000303632003B0042743033092F01DD373788
:1048C0003B000F223A4903740F683A4015003E0935
:1048D0003735092A01DC303215000F2333401A0026
:1048E000C577390A3732092B01DC30331A000F2320
:1048F0000B4082771A003E0B3732092B01DC303334
:104900001A000F2131400D0042773B0C3735092941
:1049100001DC30310D000F221A40110005773E0DE9
:104920003731092A01DC303211000F233340C176C0
:1049300019003E0E3731092B01DC303319000F25E9
:1049400035402A0081763F0F3732092D01DC3035A2
:104950002A003B0042763033092F01DD37373B0018
:104960000021202603768155E1880025012900D801
:104970007BE6FFF7C3FC050077E604220424014927
:1049800089E6C046D467000098090020E46700006B
:10499000440D0020480E0020C4090020540E0020C1
:1049A000FF3F00F00CA0800040A0800044A08000E9
:1049B00048A08000E188012900D856E60C48FFF79E
:1049C0009DFC050051E60B4F0B483E88301801F066
:1049D0004DFB32193A8048E6E188012900D844E6C7
:1049E0000648FFF78BFC05003FE6040053E6C0468F
:1049F000C86700004A0E0020480D0020D86700005C
:104A000070B50025304B012104001A201D70FFF7FE
:104A1000A1F801211A20FFF7E1F82C4801210570C7
:104A20001920FFF797F801211920FFF7D7F8202167
:104A3000274A284BD6690E43D66101263C223831DD
:104A40005D5C35435D54985C493988439854062031
:104A50009D5C05439D545925585D3043585560254C
:104A60009E5C31409954995C294399541A4A1B4BD6
:104A700053805078C609FCD11948FEF71FFD194D27
:104A80000426280001F0FAF8280001F00DF97F2231
:104A90002B6819780A400C211A70C122187830430B
:104AA00018701D89104E8D431D81900035582902C4
:104AB0000A0A32508020022530601E782E431E7074
:104AC0000123237070BDC046B9090020B809002039
:104AD0000004004000440041000C0040064000007B
:104AE000F1590000540E002000E100E00078002899
:104AF00010D00121084B1B681A898A4308211A81AA
:104B00001A8B0A4304211A831A8B0A431A83002240
:104B1000024B1A607047C046540E00204C0E002015
:104B2000264B8A00D05810B50C0000282AD0026805
:104B3000234993688B423ED10369002B11D1EFF3D7
:104B4000108172B62433C35CDAB2002902D162B696
:104B5000BFF36F8F002A03D0016AC069081A1BD106
:104B600010BDEFF3108272B63421435CD9B2002A33
:104B700002D162B6BFF36F8F0029F1D0026BC06A19
:104B8000101A07E0FF200F4A0840410153189868A7
:104B90008104880C0028E3D0FF210A4B0C401A68DE
:104BA00008348023640110190224427959421143C8
:104BB0004171C471D4E79847ECE7C0469C090020D6
:104BC000C9410000540E0020F0B54024A446C6465A
:104BD000822567466B4E00B533686D00585D6A4CA0
:104BE000384358557460B768684838408027BF021A
:104BF0000743B760B068870BB8036746B060585D7D
:104C0000384358550235585D4006FCD50825FF3518
:104C10005F5DF807FCD5B668F0B2904200D910008D
:104C2000002A68D00726531E9E42AD416B420325E1
:104C30000D406F427D411D4260D0CF1C3B1B062BB7
:104C40005CD99508AF003D00B8463700043DAD087B
:104C5000013500232F402E4222D0012F1BD0022FDE
:104C600016D0032F11D0042F0CD0052F07D0062FFC
:104C700002D023680B600423E558CD500433E75875
:104C8000CF500433E658CE500433E558CD500433AA
:104C9000E758CF500433E658CE500433434519D07B
:104CA000E5581F1DCD50E6592033CE510437E55944
:104CB000CD510437E659CE510437E559CD5104376B
:104CC000E659CE510437E559CD510437E659CE5156
:104CD0004345E5D103271300BB4317420BD0E55CE6
:104CE0005F1CCD54BA4206D9E65D0233CE559A42D6
:104CF00001D9E25CCA5404BC9046F0BD07273D00D0
:104D000000231540174222D0012D1BD0022D16D0B2
:104D1000032D11D0042D0CD0052D07D0062D02D067
:104D200023780B700123E65CCE540133E75CCF544B
:104D30000133E55CCD540133E65CCE540133E75CCE
:104D4000CF540133E55CCD5401339A42D3D0E65CB5
:104D50005F1CCE54E55DCD559F1CE65DDD1CCE5538
:104D6000675D4F551D1D665D5F1D4E55E55DCD555B
:104D70009F1DE65DDD1DCE55675D08334F559A4298
:104D8000E5D1B8E7540E0020840B0020FF3F00F06F
:104D90001E4B8A00D05810B5002827D002681C4945
:104DA00093688B422FD10369002B0ED1EFF3108152
:104DB00072B62433C35CDAB2002902D162B6BFF303
:104DC0006F8F002A1BD1002010BDEFF3108272B646
:104DD0003421435CD9B2002A02D162B6BFF36F8F8F
:104DE0000029F0D0026BC06A101AEDE7FF20094AD3
:104DF00001404901531898688104880CE4E7016A6E
:104E0000C069081AE0E79847DEE7C0469C09002021
:104E1000C9410000540E0020F0B5D6464F46464624
:104E2000C0B58A4B0C00186882B0002820D0884D8D
:104E30002978002924D06422864FA600F3592A70CD
:104E4000002B28D01E68844F7568BD4200D08FE0CB
:104E50001D69002D64D1EFF3108472B624215A5CD1
:104E6000002A00D08BE0002C02D162B6BFF36F8F16
:104E70000122504202B01CBC90469946A246F0BDA9
:104E800000211920FEF7AAFE6422724FA600F359F2
:104E90002A70002BD6D1FF27704A27407E01901937
:104EA0008568A9040125002902D183689804850C2E
:104EB00091198B689804830C3F2B50D88868830B1A
:104EC0009803886001208246911912688B68904689
:104ED0008946514646440936FF363378A2010B43D2
:104EE00033706B465E4CD81D11192A0001F0BEF8D4
:104EF000002DBDD0484681688A040CD14023012092
:104F0000524608377F0147443C791C433C71F87195
:104F1000717811437170012DAAD16D46E879A9E726
:104F2000EFF3108472B63420195C00299BD0002C5A
:104F300002D162B6BFF36F8FDA6A1E6BB24236D20D
:104F4000986A541C8446DC62624411786A461E6B7F
:104F5000C8B2D071B44200D08CE701252CE088683B
:104F6000403B9B04800B9B0C800303438B60A9E7B1
:104F70006946012218000731A8470500CBE7002C3D
:104F800002D162B6BFF36F8FDE691F6ABE424BD299
:104F900098696A468046751CDD61464431781E6A10
:104FA000C8B2D071B54200D064E7012540E01F6B64
:104FB0000025BA4200D05BE70027DF621F61EFF3F4
:104FC000108972B634241F550134185D002823D08F
:104FD0001F55012459681F7A08687A018618093616
:104FE000FF3677788A1827437770DF689668BC04A5
:104FF00027091C4C26403E4396601A7A56018F19A9
:10500000B9688C0B4021A203BA601B7A08335E0199
:10501000801907790F4307714C46002C00D07AE7BE
:1050200062B6BFF36F8F76E71C6AA64200D01FE717
:1050300000270124DF611C61EFF3108972B623346D
:105040001F551134185D0028C2D1E5E74C0E002031
:10505000B80900209C090020053F0000540E0020E4
:10506000840B0020FF3F00F0F0B545464E46DE467B
:105070005746E0B51D007C4B0E001868904685B081
:10508000002800D1E9E08021CA01954200D9E4E07E
:10509000764C2778002F00D1DAE064232370002DAE
:1050A00000D1DEE0724CFF27A2467249B0014218DF
:1050B00037400023380001927A0157469B463B68EF
:1050C0006D499C468946083044016444E01D0292C3
:1050D0000390A179CA092BD100234A462F0093558A
:1050E000402D00D9402741463A00019800F0BEFF0C
:1050F000029A01991000504441618369BA049B0BE4
:10510000910C9A030A43826102200399BB44087000
:105110006379823818436071ED1BB844002DD8D1F3
:10512000584605B03CBC90469946A246AB46F0BDF9
:10513000524F5349386800F0EBFD524B172158434A
:1051400000F0E6FD07210F00421C1740114246D037
:10515000012F3AD0022F2FD0032F25D0042F1BD0A0
:10516000052F11D0062F07D0E3799B07B4D44A4608
:10517000915D00295FD10138E779BB07ACD44B467C
:105180009A5D002A57D10138E1798B07A4D44F46A4
:10519000BB5D002B4FD10138E27993079CD449467F
:1051A0008F5D002F47D10138E3799B0794D44A469D
:1051B000915D00293FD10138E779BB0700D58BE726
:1051C0004B469A5D002A36D10138E1798B0700D52C
:1051D00082E74F46BB5D002B2DD101382BD3E279FE
:1051E000930700D578E749468F5D002F23D1431EF2
:1051F000E079820700D56FE7E279920700D56BE787
:10520000E1798A0700D567E7E779BA0700D563E750
:10521000E079820700D55FE74A46915D00290AD10F
:10522000E779BA0700D557E7E079820700D553E759
:10523000D81F062BD3D101244F460125029ABC5515
:10524000524490696C42810B8B03A346936167E7DC
:1052500000211A20FEF7C2FC1FE701225642B34686
:105260005EE70027BB465BE74C0E0020B909002033
:10527000540E0020C4090020BC0900201C0000209E
:1052800040420F0070110100154B70B518781400E2
:10529000002805D1134A1578002D16D1002C01D114
:1052A000200070BD104E2200300000F0DFFE0F48DD
:1052B0000F4946618369A5040B4083618269AE0C86
:1052C000930B990331438161EAE70A4E0A48358816
:1052D0002200281800F0CAFE2A193280E0E7C046F2
:1052E000440D0020480E0020C4090020540E002068
:1052F000FF3F00F04A0E0020480D0020F0B5DE46CA
:1053000057464E464546E0B54B780C0085B00B2B12
:105310001FD8CD4A99005558AF46227803AC002AD1
:1053200000D1D5E00025C94E25803378013B594294
:105330004B412370C6492088C64C08806161022118
:10534000A669C54A1640A661A569AB0B9803084338
:10535000A061012005B03CBC90469946A246AB46F0
:10536000F0BDA078BD4C2060BA4DAB69990B8803A5
:10537000A8610120EEE7A778012F00D147E10022C4
:10538000B24E3270F0E7A778012F00D144E100203F
:10539000002FDFD10122AD4CAE4E2270B369013037
:1053A0009D0BA903B161D5E7AA4B08229869A6789D
:1053B000810B8F031C689F6106200223FF32A354D8
:1053C000FF30255C823B2B432354A15C8F07F80FF1
:1053D000002FFADA7F248025A14A2640937A694279
:1053E000A34333439372967A31439172B2E721001B
:1053F000FFF71AF9AEE70020ACE79A4E3578944BE8
:1054000094481D7001254361866993490E40866169
:105410008769BC0BA2032A43826101209AE727789F
:105420000020FB0696D1904B5E689946002E00D175
:1054300007E18849A04601250C008C4F2CE0022E84
:105440004CD0032E00D1BCE0822E1DD16A01A618DB
:10545000C022B3698649A801194093050B437C49D2
:10546000B3618C46604470612E008022216808364A
:105470007301C818067952423243027170203022FB
:105480005E5C864316435E544A460135A900565871
:105490000437002E00D1A0E0832ED0D16E01A319D5
:1054A000C0269A697249A8011140B2050A436849A9
:1054B0009A6146185E612B00702008335901402321
:1054C00022688E5C86431E438E54DDE7634E95E76B
:1054D0005F4F22805F4C3A80676130E77E68002E24
:1054E0000ED03068634A4169914200D0A6E0B069AD
:1054F00000F0B2FDB06A00F0AFFD300000F092FAAB
:10550000382000F08BFA5C4B060003604460856035
:1055100080200023242241003362F16033617361F3
:10552000F361B3541032F3623363B3540132B354B2
:1055300008008A4600F086FD8346B061504600F0C0
:1055400081FD69016218C021B06293684848184023
:105550008B050343280093602368083041010093C2
:10556000CB5C07209C4603006046984303239A4681
:10557000534618430300009801910B5401239C46A5
:105580005946834663465160690159440931FF31E8
:1055900048781843487091682F4B0B408021C8030E
:1055A000184390609168880B83039360019A009B75
:1055B00092464021534418001B790B4303717E60CF
:1055C00062E77868002800D15EE701682B4ECB685F
:1055D000B34200D158E7984756E727004446B946FA
:1055E00049462A27A07802244A251E4B0E681860D7
:1055F0000120FF37F25DFF352243F255735D03430F
:1056000073558E690120B70BBC038C61A2E600279D
:1056100003AC1B4E278088E600220E4E0C4C184827
:10562000227007707461B3690B4D2B40B361B1698F
:10563000880B840327430120B7618BE6300088473D
:105640005EE7044DA946CBE778670000BA09002061
:10565000C4090020540E0020FF3F00F0500E00202F
:10566000005000414C0E0020280000209C09002022
:10567000FFFFFF8FAD410000B0670000013F000059
:10568000C3090020F0B55746DE464E464546E0B514
:10569000CC4F04003B6883B09A8B120700D54DE1D4
:1056A0009D8B6A0713D504269E83C74B1878002864
:1056B00007D01A78013AD1B219701D78002D00D1A7
:1056C0007AE1C24E3378002B00D0F9E03B68082520
:1056D000FF355E5DF10625D5102140206026595525
:1056E000F4315A5CBA4D02435A542B781E4200D012
:1056F000F3E029002000FFF701FE002800D014E1AC
:1057000006222021B34CFF32A1543B680822FF320D
:10571000995C490606D5402540209D54C8355E5DFC
:1057200006435E55AC4AAD491D8CFE23002401267C
:10573000904689461D40002D50D028002041064249
:1057400049D023003A68083359015018C379D90762
:1057500002D4C1798B073BD54346A000C05800282E
:1057600043D002681168494500D020E14368FF2119
:105770001A6800939446027A8A46130008335B0144
:105780006344D979C90723D5DE7143695201002BDF
:1057900040D1009B99188B688B4699048B0C03624F
:1057A000016A00295ED05B46826A46615A60EFF367
:1057B000108272B6242146541031435CD9B2002BBA
:1057C00041D03523C654002A02D162B6BFF36F8F91
:1057D0003000A04085430134092CACD103B03CBC5F
:1057E00090469946A246AB46F0BDE3B2032C00D1E9
:1057F00082E0012BECD192214900505C813B0343B4
:10580000300053542823A0402339FF33FF39D154AB
:105810008543E0E700998B1899689B468B04990CA7
:105820000163036B002B1DD000225946836942613E
:105830004B60EFF3108272B6342146541039435C4A
:10584000D9B2002BBDD13523C154002A02D162B692
:10585000BFF36F8F426883681168009252468C468E
:105860001A40520101239B4661465B468918093163
:10587000FF310191497819430B0001994B70009B4E
:10588000C1689A46890409098B4652449368544971
:105890000B4059460B439360027A00995301CA1892
:1058A0009368990B8B039360007A40210830430181
:1058B0003000A04063441A7985430A431A718AE78D
:1058C00030780138C2B232703178002900D0FDE65C
:1058D00001211920FEF782F9F8E62C79002C1BD063
:1058E00000F0B8F9290000F0A1F900281DD1B9692C
:1058F0008A0B9003B86103E7B22180234900505C12
:105900005B420343682053546339FF30FF3911541D
:105910003000A04085435EE7280000F00BF9002826
:1059200003D1BD69AB0B9E03BE61062580263B6893
:10593000FF35585D744204435C55E7E6C020B96802
:10594000284D8022224E294080050143B9607E60A7
:10595000072651005A5CB243012632435A54BA69B1
:105960002A401043B86170201F4D7D615E5C802528
:105970008643102006435E54BA6819496E031140ED
:105980000E43BE60BA680626910B8D034021BD60B0
:105990000A25FF369A5DFF350A439A5508210022F1
:1059A0005E5D064311485E550260998378E688473C
:1059B0003000A04085430EE701211A20FEF70EF9C2
:1059C0007FE6C046540E0020B9090020B809002027
:1059D000840B0020005000419C0900201942000067
:1059E000FF3F00F0FFFFFF8FC40900204C0E002096
:1059F000044B10B51878002802D10348FFF742FE87
:105A000010BDC046480E002098090020014B024AF4
:105A10001A607047540E00200050004110B500F08D
:105A200011FB10BD10B500F017FB10BD3F207047F3
:105A300010B502210069FFF7ABF910BD10B50321C5
:105A40000069FFF76DF810BD10B5094B0400D87957
:105A5000002803D101210020616010BD13002069DE
:105A60000A000321FFF700FB0028F3D0F5E7C0464A
:105A700054000020074A0300106810B5411C03D0F1
:105A800001214B42136010BD02211869FFF7C4F9D0
:105A9000F9E7C046A000002010B50A4C03002068BA
:105AA000421C09D11A68084952698A4205D102216B
:105AB0001869FFF7B1F9206010BD18009047206009
:105AC000FAE7C046A0000020755A000010B582B069
:105AD0006B460400D9712168D81D0D4A4B6893426A
:105AE00011D10C49CB79002B04D10120606000203A
:105AF00002B010BD0200012303212069FFF7B4FAB0
:105B00000028F5D1F1E70100012220009847EFE7D6
:105B1000495A00005400002010B503784222023395
:105B2000037002490248FFF7AFFB10BD5C00002084
:105B30009809002010B50278030041780020A12ABE
:105B40000CD0212A00D010BD20291FD022290ED030
:105B50002329F8D15A88134C2260F4E72129F2D185
:105B6000114912489A3AFFF78FFB0120EBE798782A
:105B70000D4CE07196232168DA00914202D1E07960
:105B8000C3070AD5FEF77AF90020DCE7064C1A3A7B
:105B900021000648FFF718F8ECE7FA20FEF768F94D
:105BA0000020D0E750000020540000209809002079
:105BB000FA220021054B9000054A986005480832FA
:105BC00059601A60186119767047C046580F002056
:105BD000F86700009809002070B544680E000025A1
:105BE000002C04D10CE0E4682D18002C08D02368A8
:105BF000310020005A6890470028F4DA01256D42F0
:105C0000280070BD70B544680D00002C03D10AE077
:105C1000E468002C07D02368290020009A68904788
:105C20000028F5D070BD0020FCE7C04670B5446880
:105C30000D00002C03D10AE0E468002C07D0236893
:105C4000290020001A6890470028F5D070BD002078
:105C5000FCE7C046064901230A6810B51400054850
:105C60001C401A4203D1044A446002800B6010BDFC
:105C7000740F0020780F00200204000070B50500AA
:105C80000122802010CD002123781343237042008D
:105C9000280000F0F4F9A178CB07FCD4A3789B0787
:105CA000F9D4656270BDC0461F22F0B51700072603
:105CB000144B1C68650BA10CE30D0F401E402A40DD
:105CC0001F2A00D105251F242C401F2F00D11D2184
:105CD0001F270F40072E00D1032302680A4D108DA5
:105CE000A6012840304310851F20148D84433C4377
:105CF00014851838118D1840044B07030B403B43A3
:105D00001385F0BD246080003FF8FFFFFF8FFFFF89
:105D1000002243088B4274D303098B425FD3030AEA
:105D20008B4244D3030B8B4228D3030C8B420DD3FD
:105D3000FF22090212BA030C8B4202D3121209028B
:105D400065D0030B8B4219D300E0090AC30B8B42C9
:105D500001D3CB03C01A5241830B8B4201D38B0377
:105D6000C01A5241430B8B4201D34B03C01A52411C
:105D7000030B8B4201D30B03C01A5241C30A8B425F
:105D800001D3CB02C01A5241830A8B4201D38B024A
:105D9000C01A5241430A8B4201D34B02C01A5241EE
:105DA000030A8B4201D30B02C01A5241CDD2C30960
:105DB0008B4201D3CB01C01A524183098B4201D3DC
:105DC0008B01C01A524143098B4201D34B01C01AC7
:105DD000524103098B4201D30B01C01A5241C3083F
:105DE0008B4201D3CB00C01A524183088B4201D3AE
:105DF0008B00C01A524143088B4201D34B00C01A9A
:105E00005241411A00D20146524110467047FFE705
:105E100001B5002000F0F0F802BDC0460029F7D01F
:105E200076E7704703460B437FD4002243088B423A
:105E300074D303098B425FD3030A8B4244D3030B11
:105E40008B4228D3030C8B420DD3FF22090212BAD6
:105E5000030C8B4202D31212090265D0030B8B4252
:105E600019D300E0090AC30B8B4201D3CB03C01A3C
:105E70005241830B8B4201D38B03C01A5241430B17
:105E80008B4201D34B03C01A5241030B8B4201D307
:105E90000B03C01A5241C30A8B4201D3CB02C01A72
:105EA0005241830A8B4201D38B02C01A5241430AEA
:105EB0008B4201D34B02C01A5241030A8B4201D3D9
:105EC0000B02C01A5241CDD2C3098B4201D3CB0180
:105ED000C01A524183098B4201D38B01C01A52412F
:105EE00043098B4201D34B01C01A524103098B4233
:105EF00001D30B01C01A5241C3088B4201D3CB001E
:105F0000C01A524183088B4201D38B00C01A524100
:105F100043088B4201D34B00C01A5241411A00D2B0
:105F200001465241104670475DE0CA0F00D0494219
:105F3000031000D34042534000229C4603098B4289
:105F40002DD3030A8B4212D3FC22890112BA030A11
:105F50008B420CD3890192118B4208D38901921193
:105F60008B4204D389013AD0921100E08909C30918
:105F70008B4201D3CB01C01A524183098B4201D31A
:105F80008B01C01A524143098B4201D34B01C01A05
:105F9000524103098B4201D30B01C01A5241C3087D
:105FA0008B4201D3CB00C01A524183088B4201D3EC
:105FB0008B00C01A5241D9D243088B4201D34B0007
:105FC000C01A5241411A00D20146634652415B1049
:105FD000104601D34042002B00D54942704763462A
:105FE0005B1000D3404201B5002000F005F802BD6F
:105FF0000029F8D016E770477047C04670B50026F4
:106000000C4D0D4C641BA410A64209D1002600F0D3
:1060100021F90A4D0A4C641BA410A64205D170BD9B
:10602000B300EB5898470136EEE7B300EB589847BA
:106030000136F2E7080100200801002008010020D5
:106040001C01002010B5034B0100186800F06AF82D
:1060500010BDC046A400002010B5034B0100186815
:1060600000F016F810BDC046A4000020002310B5B3
:106070009A4200D110BDCC5CC4540133F8E7030050
:106080008218934200D1704719700133F9E700007C
:1060900070B50500002910D00C1F2368002B00DA12
:1060A000E418280000F0B6F81D4A1368002B05D14B
:1060B00063601460280000F0B5F870BDA34208D9F1
:1060C000216860188342F3D118685B684118216029
:1060D000EEE71A005B68002B01D0A342F9D91168E2
:1060E0005018A0420BD12068091850181160834243
:1060F000E0D118685B68411811605360DAE7A0428C
:1061000002D90C232B60D5E721686018834203D1A4
:1061100018685B684118216063605460CAE7C04634
:10612000800F0020F8B50323CD1C9D4308350600E1
:106130000C2D1FD20C25A9421ED8300000F06AF8A1
:1061400025490A681400002C1AD1244F3B68002B03
:1061500004D12100300000F043F8386029003000FD
:1061600000F03EF8431C2BD10C233000336000F0CC
:1061700059F803E0002DDEDA0C2333600020F8BD6F
:1061800023685B1B19D40B2B03D92360E41825600B
:1061900003E06368A2420ED10B60300000F042F8C9
:1061A000200007220B30231D9043C21A9842E6D0EC
:1061B0001B1AA350E3E75360EFE722006468C2E7CD
:1061C0000323C41C9C43A042E1D0211A300000F0FC
:1061D00007F8431CDBD1C7E7800F0020840F0020A5
:1061E000002370B5064D040008002B6000F024F871
:1061F000431C03D12B68002B00D0236070BDC04628
:106200008C0F00200023C25C0133002AFBD1581EF2
:106210007047000010B5024800F00CF810BDC046F1
:10622000940F002010B5024800F005F810BDC046DC
:10623000940F002070477047044A0300106800283C
:1062400002D0C318136070470148FAE7880F002096
:106250009C0F0020F8B5C046F8BC08BC9E467047AD
:10626000F8B5C046F8BC08BC9E467047D222000074
:10627000D222000002230000F8220000DA220000EF
:10628000D4220000D2220000D22200009E22000070
:10629000000000000000000009240000512400005C
:1062A0009D23000005240000A1230000B923000065
:1062B000E5230000000000000B00000002000000C9
:1062C0001C000000FF00010101010B0000000000A4
:1062D0000A000000020000001C000000FF00000196
:1062E00000010A00000000000E000000080000008D
:1062F00004000000FF00000000000E00000000008D
:1063000009000000040000001C000000FF00010064
:106310000100090000000000080000000400000067
:106320001C000000FF000000000010000000000042
:106330000F000000040000001C000000FF0001032B
:1063400001030F0000000000140000000500000021
:106350002C000000FF00020002000400000000000A
:10636000150000000800000004000000FF00FFFF0F
:10637000FFFF050000000000060000000400000010
:106380001C000000060000010001060000000000E3
:1063900007000000040000001C00000007000101CD
:1063A00001010700000000001200000004000000CE
:1063B0001C000000FF0000030003020000000000BA
:1063C00010000000040000001C000000FF0000029C
:1063D00000020000000000001300000005000000A3
:1063E0002C000000FF000300030003000000000079
:1063F00011000000040000001C000000FF0001026A
:106400000102010000000000020000000100000085
:10641000020000000000FFFFFFFF0200010000007B
:106420000800000001000000180000000200000445
:106430000004080001000000090000000100000045
:10644000180000000300010401040900000000001E
:10645000040000000100000018000000040000001B
:106460000000040000000000050000000100000022
:1064700018000000050001000100050001000000F7
:106480000200000001000000000000000A00FFFF01
:10649000FFFF0200000000001600000002000000E4
:1064A00004000000FF00FFFFFFFF060000000000E7
:1064B000170000000200000004000000FF00FFFFC2
:1064C000FFFF0700000000000C00000003000000B8
:1064D00004000000FF00FFFFFFFF0C0001000000B0
:1064E0000A0000000300000004000000FF00FFFF9E
:1064F000FFFF0A00010000000B0000000300000085
:1065000004000000FF00FFFFFFFF0B000100000080
:10651000030000000B00000004000000FF00FFFF6C
:10652000FFFFFF00000000001B0000000B00000048
:1065300004000000FF00FFFFFFFFFF00000000005D
:106540001C0000000600000000000000FF00FFFF2C
:10655000FFFFFF0000000000180000000600000020
:1065600000000000FF00FFFFFFFFFF000000000031
:10657000190000000600000000000000FF00FFFFFF
:10658000FFFFFF00010000001600000003000000F4
:1065900000000000FF00FFFFFFFFFF000100000000
:1065A000170000000300000000000000FF00FFFFD4
:1065B000FFFFFF00000000001600000002000000C6
:1065C00000000000FF00FFFFFFFFFF0000000000D1
:1065D000170000000200000000000000FF00FFFFA5
:1065E000FFFFFF0000000000130000000200000099
:1065F00000000000FF00FFFFFFFFFF0000000000A1
:10660000100000000200000000000000FF00FFFF7B
:10661000FFFFFF0000000000120000000200000069
:1066200000000000FF00FFFFFFFFFF000000000070
:10663000110000000200000000000000FF00FFFF4A
:10664000FFFFFF00000000000D000000040000003C
:106650000C000000FF000100FFFF0D000000000023
:1066600015000000050000000C000000FF00030002
:10667000FFFFFF0000000000060000000400000013
:106680000C000000FF000001FFFFFF000000000001
:1066900007000000040000000C000000FF000101E2
:1066A000FFFFFF00000000000300000001000000E9
:1066B00002000000FF00FFFFFFFFFF0000000000DE
:1066C0000200000001000000020000001400FFFFB3
:1066D000FFFF0200000000000600000001000000B3
:1066E000020000000600000100010600000000009A
:1066F0000700000001000000020000000700010187
:10670000010107000008004214090000000C0042CB
:10671000150A000000100042160B00000014004291
:10672000170C000000180042180D0000001C004269
:10673000190E00000000000000000000FD32000003
:10674000313D0000B12F00008D2F0000F12D000021
:10675000DD2F0000092E000051300000292E00001E
:10676000612F0000ED2D00001A001A001B001B0015
:106770001C001C001D001D001A5300007653000071
:10678000525300008653000052530000A8530000EB
:10679000EE530000F6530000FA5300001E540000B0
:1067A000CC54000062530000000000000000000014
:1067B00019420000053F0000C9410000013F0000F0
:1067C00099410000AD410000466561746865722022
:1067D0004D300000040309044164616672756974F8
:1067E0000000000012010002EF0201409A230B801A
:1067F0000001010203010000000000000000000091
:10680000CD5A0000495A00002D5A00003D5A0000A0
:10681000315A0000755A0000995A0000000000002B
:106820000100000000200042002400420028004235
:10683000002C0042003000420034004240420F0071
:1068400008000000FFFFFFFF0000000083000000C1
:1068500002000000820000000000000000000000B4
:106860000000000000000000000000000000000028
:10687000FFFFFFFF00C2010000000800080B00023C
:1068800002020000090400000102020000052400C9
:10689000100104240206052406000105240101015B
:1068A0000705810310001009040100020A0000001E
:1068B00007050202400000070583024000000000B7
:1068C000FFFFFFFFA8000020000000000000000004
:1068D00000000000000000000000000000000000B8
:1068E00000000000000000000000000000000000A8
:1068F0000000000000000000000000000000000098
:106900000000000000000000000000000000000087
:106910000000000000000000000000000000000077
:106920000000000000000000DD200000FD28000045
:10693000352900000D5A0000B15B0000B5200000B1
:040000030000343194
:00000001FF
